:100000000C9454000C947C000C947C000C947C00A8
:100010000C947C000C947C000C947C000C947C0070
:100020000C947C000C947C000C947C000C947C0060
:100030000C947C000C947C000C947C000C947C0050
:100040000C94E6010C947C000C9456020C94300243
:100050000C947C000C947C000C947C000C947C0030
:100060000C947C000C947C0000000000250028000B
:100070002B0000000000240027002A0004040404D0
:100080000404040402020202020203030303030342
:10009000010204081020408001020408102001021F
:1000A000040810208802020411241FBECFEFD8E0FC
:1000B000DEBFCDBF21E0AAE2B1E001C01D92AA3DA2
:1000C000B207E1F711E0A0E0B1E0ECE3FEE002C02E
:1000D00005900D92AA32B107D9F710E0C3E5D0E040
:1000E00004C02197FE010E941405C235D107C9F74B
:1000F0000E94C3020C9411070C940000AF92BF92AF
:10010000CF92DF92EF92FF920F931F93CF93DF93E3
:100110006C017B018B01040F151FEB015E01AE1812
:10012000BF08C017D10759F06991D601ED91FC9134
:100130000190F081E02DC6010995892B79F7C50161
:10014000DF91CF911F910F91FF90EF90DF90CF90B3
:10015000BF90AF900895FC01538D448D252F30E062
:10016000842F90E0821B930B541710F0CF960895C4
:1001700001970895FC01918D828D981761F0A28DF1
:10018000AE0FBF2FB11D5D968C91928D9F5F9F73B7
:10019000928F90E008958FEF9FEF0895FC01918D6D
:1001A000828D981731F0828DE80FF11D858D90E0DA
:1001B00008958FEF9FEF0895FC01918D228D892F77
:1001C00090E0805C9F4F821B91098F73992708955F
:1001D00083E391E00E94DC0021E0892B09F420E018
:1001E000822F089580E090E0892B29F00E94E8009A
:1001F00081110C9400000895FC01A48DA80FB92F63
:10020000B11DA35ABF4F2C91848D90E001968F733E
:100210009927848FA689B7892C93A089B1898C915D
:10022000837080648C93938D848D981306C00288AC
:10023000F389E02D80818F7D80830895EF92FF9276
:100240000F931F93CF93DF93EC0181E0888F9B8DF9
:100250008C8D98131AC0E889F989808185FF15C0B3
:100260009FB7F894EE89FF896083E889F9898081D6
:100270008370806480839FBF81E090E0DF91CF91A5
:100280001F910F91FF90EF900895F62E0B8D10E0C7
:100290000F5F1F4F0F731127E02E8C8D8E110CC036
:1002A0000FB607FCFACFE889F989808185FFF5CF81
:1002B000CE010E94FC00F1CFEB8DEC0FFD2FF11D64
:1002C000E35AFF4FF0829FB7F8940B8FEA89FB89BE
:1002D00080818062CFCFCF93DF93EC01888D88231C
:1002E000B9F0AA89BB89E889F9898C9185FD03C099
:1002F000808186FD0DC00FB607FCF7CF8C9185FF7E
:10030000F2CF808185FFEDCFCE010E94FC00E9CFC6
:10031000DF91CF91089542E050E068E171E083E31E
:1003200091E00C947E000F931F93CF93DF93EC0129
:1003300088819981009759F02A813B8126173707D8
:1003400030F081E0DF91CF911F910F9108958B01E3
:100350006F5F7F4F0E944406009759F0998388830E
:100360001B830A832C813D81232B59F7FC011082CA
:10037000E8CF80E0E7CFEF92FF920F931F93CF93E8
:10038000DF93EC017B018A01BA010E94930128816D
:100390003981811114C02115310519F0C9010E945C
:1003A000BB05198218821D821C821B821A82CE0113
:1003B000DF91CF911F910F91FF90EF9008951D83D2
:1003C0000C83B701C9010E940A07F1CF1F920F9257
:1003D0000FB60F9211242F933F938F939F93AF9358
:1003E000BF9380912F0190913001A0913101B09184
:1003F000320130912E0123E0230F2D3758F501965D
:10040000A11DB11D20932E0180932F0190933001E7
:10041000A0933101B093320180912A0190912B0178
:10042000A0912C01B0912D010196A11DB11D8093C9
:100430002A0190932B01A0932C01B0932D01BF9121
:10044000AF919F918F913F912F910F900FBE0F9081
:100450001F90189526E8230F0296A11DB11DD2CF3B
:100460001F920F920FB60F9211242F933F934F9329
:100470005F936F937F938F939F93AF93BF93EF930C
:10048000FF9383E391E00E94FC00FF91EF91BF9105
:10049000AF919F918F917F916F915F914F913F911C
:1004A0002F910F900FBE0F901F9018951F920F92D3
:1004B0000FB60F9211242F938F939F93EF93FF9377
:1004C000E0914301F09144018081E0914901F09174
:1004D0004A0182FD1BC0908180914C018F5F8F7318
:1004E00020914D01821741F0E0914C01F0E0ED5C6C
:1004F000FE4F958F80934C01FF91EF919F918F91CB
:100500002F910F900FBE0F901F9018958081F4CF00
:10051000E3E3F1E01382128288EE93E0A0E0B0E022
:1005200084839583A683B7838AE091E09183808357
:1005300085EC90E09587848784EC90E097878687A8
:1005400080EC90E0918B808B81EC90E0938B828BA0
:1005500082EC90E0958B848B86EC90E0978B868B79
:10056000118E128E138E148EE0EDF1E01182108246
:10057000138212821582148250E040E06AE171E039
:10058000CF010C94BB01CF93DF93CDB7DEB7689753
:100590000FB6F894DEBF0FBECDBF789484B58260ED
:1005A00084BD84B5816084BD85B5826085BD85B517
:1005B000816085BD80916E00816080936E00109295
:1005C0008100809181008260809381008091810010
:1005D00081608093810080918000816080938000A1
:1005E0008091B10084608093B1008091B0008160FF
:1005F0008093B00080917A00846080937A0080912B
:100600007A00826080937A0080917A008160809382
:100610007A0080917A00806880937A001092C100FD
:10062000E6E9F0E02491E2E8F0E08491882399F093
:1006300090E0880F991FFC01EE58FF4FA591B491EF
:10064000FC01E859FF4F859194918FB7F894EC9194
:10065000E22BEC938FBFE0914301F091440182E0E3
:100660008083E0913F01F09140011082E0914101CF
:10067000F09142018FEC808310924B01E091470191
:10068000F091480186E08083E0914501F0914601B8
:10069000808180618083E0914501F09146018081F5
:1006A00088608083E0914501F091460180818068F7
:1006B0008083E0914501F091460180818F7D8083A8
:1006C0008E010F5F1F4F80E0E82E80E0F82E83E35D
:1006D00091E00E94DC00181619060CF056C083E366
:1006E00091E00E94BA008A3009F06AC08091D0017E
:1006F0009091D101009709F454C00E940B046B0142
:10070000072E000C880B990B0E947E049B01AC0104
:100710000E941A05811149C0C114D10409F445C0D1
:100720001C8A1B8A1E8A1D8A188E1F8A4AE0B801FD
:10073000CC9CC001CD9C900D900D11240E943204E0
:10074000F80101900020E9F73197AF01401B510BF0
:10075000B801CE0143960E94BB014F89588D6B8929
:100760007C8983E391E00E947E000E948B018B894B
:100770009C89009711F00E94BB0550E040E06AE1BF
:1007800071E080ED91E00E94BB01E114F10409F4F5
:100790009ECF0E94E800882309F499CF0E940000B0
:1007A00096CF60E070E0CB01AACF4EE050E06BE165
:1007B00071E083E391E00E947E000E948B01DDCF17
:1007C00089831A82C090D401D090D5018FEFC81AC6
:1007D000D80AB60180ED91E00E9493018823A9F226
:1007E0002091D0013091D1018091D4019091D50117
:1007F000B801820F931F0E940A07D092D501C092C0
:10080000D401C3CF8091D0019091D101009711F014
:100810000C94BB0508951F93FC0199278827BC0100
:10082000E89411911032E9F3193010F01E30C8F33A
:100830001B3251F01D3249F4689406C00E943D04F9
:10084000610F711D811D911D119110531A30B0F36C
:100850003EF490958095709561957F4F8F4F9F4F97
:100860001F910895BB274A3031F4992322F4BDE249
:10087000909581959F4F0C945304592F482F372FF3
:10088000262F660F771F881F991F660F771F881FF7
:10089000991F620F731F841F951F660F771F881F94
:1008A000991F0895BB27FB015527AA27880F991F79
:1008B000AA1FA41710F0A41B83955051B9F7A05D8F
:1008C000AA3308F0A95DA193009779F7B111B1930C
:1008D0001192CB010C946C04DC01FC01672F719127
:1008E0007723E1F7329704C07C916D937083629116
:1008F000AE17BF07C8F30895E89409C097FB3EF40C
:1009000090958095709561957F4F8F4F9F4F99235C
:10091000A9F0F92F96E9BB279395F69587957795DA
:100920006795B795F111F8CFFAF4BB0F11F460FF9A
:100930001BC06F5F7F4F8F4F9F4F16C0882311F0F2
:1009400096E911C0772321F09EE8872F762F05C006
:10095000662371F096E8862F70E060E02AF09A95A1
:10096000660F771F881FDAF7880F9695879597F996
:100970000895990F0008550FAA0BE0E8FEEF161630
:100980001706E807F907C0F012161306E407F50783
:1009900098F0621B730B840B950B39F40A2661F0F7
:1009A000232B242B252B21F408950A2609F4A1409A
:1009B000A6958FEF811D811D08952F923F924F9232
:1009C0005F926F927F928F929F92AF92BF92CF92DF
:1009D000DF92EF92FF920F931F93CF93DF93CDB7E8
:1009E000DEB7CA1BDB0B0FB6F894DEBF0FBECDBF60
:1009F00009942A88398848885F846E847D848C8431
:100A00009B84AA84B984C884DF80EE80FD800C8139
:100A10001B81AA81B981CE0FD11D0FB6F894DEBF1C
:100A20000FBECDBFED010895EE0FFF1F0590F491AD
:100A3000E02D09940E94B904880B990B08950F9337
:100A40001F93CF93DF938230910510F482E090E002
:100A5000E091D801F091D90130E020E0B0E0A0E0D1
:100A6000309799F42115310509F44AC0281B390B38
:100A700024303105D8F58A819B816115710589F192
:100A8000FB0193838283FE0111C040815181028169
:100A9000138148175907E0F04817590799F4109740
:100AA00061F012960C93129713961C933296CF0115
:100AB000DF91CF911F910F9108950093D80110936A
:100AC000D901F4CF2115310551F04217530738F001
:100AD000A901DB019A01BD01DF01F801C1CFEF01DE
:100AE000F9CF9093D9018093D801CDCFFE01E20FC9
:100AF000F31F819391932250310939832883D7CFF3
:100B00002091D6013091D701232B41F4209102018D
:100B1000309103013093D7012093D6012091000139
:100B2000309101012115310541F42DB73EB74091B7
:100B3000040150910501241B350BE091D601F09181
:100B4000D701E217F307A0F42E1B3F0B2817390734
:100B500078F0AC014E5F5F4F2417350748F04E0F19
:100B60005F1F5093D7014093D601819391939FCFFC
:100B7000F0E0E0E09CCFCF93DF930097E9F0FC0139
:100B8000329713821282A091D801B091D901ED0160
:100B900030E020E01097A1F420813181820F931F73
:100BA0002091D6013091D7012817390709F061C08B
:100BB000F093D701E093D601DF91CF910895EA0138
:100BC000CE17DF07E8F54A815B819E01411551058B
:100BD000B1F7E901FB83EA8349915991C40FD51F0D
:100BE000EC17FD0761F4808191810296840F951FB7
:100BF000E90199838883828193819B838A83F0E0D2
:100C0000E0E012968D919C9113970097B9F52D9184
:100C10003C911197CD010296820F931F2091D6012E
:100C20003091D7012817390739F6309751F51092CE
:100C3000D9011092D801B093D701A093D601BCCFAF
:100C4000D383C28340815181840F951FC817D90770
:100C500061F44E5F5F4F88819981480F591F51831E
:100C600040838A819B81938382832115310509F01A
:100C7000B0CFF093D901E093D8019ECFFD01DC0104
:100C8000C0CF13821282D7CFB0E0A0E0EAE4F6E052
:100C90000C94DF048C01009751F4CB010E941F05D6
:100CA0008C01C801CDB7DEB7E0E10C94FB04FC0178
:100CB000E60FF71F9C0122503109E217F30708F4F1
:100CC0009DC0D901CD91DC911197C617D70798F037
:100CD000C530D10530F3CE0104978617970708F386
:100CE000C61BD70B2297C193D1936D937C93CF01F1
:100CF0000E94BB05D6CF5B01AC1ABD0A4C018C0E1D
:100D00009D1EA091D801B091D901512C412CF12CFC
:100D1000E12C109731F58091D6019091D70188157B
:100D2000990509F05CC04616570608F058C0809136
:100D3000000190910101009741F48DB79EB7409159
:100D4000040150910501841B950BE817F90708F081
:100D500055C0F093D701E093D601F9017183608308
:100D6000A0CF8D919C91119712966C90129713962B
:100D70007C901397A815B90559F56C0142E0C40E93
:100D8000D11CCA14DB0420F1AC014A195B09DA0159
:100D90001296159780F06282738251834083D90145
:100DA0006D937C93E114F10471F0D7011396FC93D9
:100DB000EE93129776CF22968C0F9D1FF9019183A7
:100DC0008083F301EFCFF093D901E093D80169CF8D
:100DD0004816590608F42C017D01D3019ACFCB01A6
:100DE0000E941F057C01009749F0AE01B8010E94E6
:100DF0000107C8010E94BB05870153CF10E000E046
:100E000050CFFB01DC0102C001900D9241505040D7
:100E1000D8F70895FB01DC0101900D920020E1F765
:100E2000089510E0C3E5D0E004C0FE010E9414055F
:0C0E30002196C435D107C9F7F894FFCF14
:100E3C000000DA018000000000001E017E00AB0003
:100E4C006B01DC00BA00CE000D0A00696E76616C95
:0A0E5C006964206E756D6265720016
:00000001FF
