:100000000C945E000C9486000C9486000C94860080
:100010000C9486000C9486000C9486000C94860048
:100020000C9486000C9486000C9486000C94860038
:100030000C9486000C9486000C9486000C94860028
:100040000C9430020C9486000C94A0020C947A025A
:100050000C9486000C9486000C9486000C94860008
:100060000C9486000C9486000000000024002700F9
:100070002A0000000000250028002B0004040404CE
:100080000404040402020202020203030303030342
:10009000010204081020408001020408102001021F
:1000A00004081020000000080002010000030407FB
:1000B0000000000000000000D202650411241FBEF1
:1000C000CFEFD8E0DEBFCDBF21E0AEE3B1E001C0AD
:1000D0001D92AE3EB207E1F711E0A0E0B1E0E6E626
:1000E000FDE002C005900D92AE33B107D9F710E0E4
:1000F000CDE5D0E004C02197FE010E94A504CC35D7
:10010000D107C9F70E940D030C94A6060C940000B9
:10011000EAEAF0E02491E6E9F0E09491E2E8F0E028
:10012000E491EE23C9F0222339F0233001F1A8F441
:10013000213019F1223029F1F0E0EE0FFF1FEE58C7
:10014000FF4FA591B4912FB7F894EC91811126C07F
:1001500090959E239C932FBF08952730A9F02830B7
:10016000C9F0243049F7209180002F7D03C02091F1
:1001700080002F7720938000DFCF24B52F7724BD18
:10018000DBCF24B52F7DFBCF2091B0002F772093BC
:10019000B000D2CF2091B0002F7DF9CF9E2BDACFC7
:1001A000AF92BF92CF92DF92EF92FF920F931F9385
:1001B000CF93DF936C017B018B01040F151FEB01C3
:1001C0005E01AE18BF08C017D10759F06991D6017A
:1001D000ED91FC910190F081E02DC6010995892BEC
:1001E00079F7C501DF91CF911F910F91FF90EF90AB
:1001F000DF90CF90BF90AF900895FC01538D448D58
:10020000252F30E0842F90E0821B930B541710F0C1
:10021000CF96089501970895FC01918D828D9817CE
:1002200061F0A28DAE0FBF2FB11D5D968C91928DA6
:100230009F5F9F73928F90E008958FEF9FEF0895D7
:10024000FC01918D828D981731F0828DE80FF11DA0
:10025000858D90E008958FEF9FEF0895FC01918DBB
:10026000228D892F90E0805C9F4F821B91098F73B4
:100270009927089587E491E00E942E0121E0892BBF
:1002800009F420E0822F089580E090E0892B29F086
:100290000E943A0181110C9400000895FC01A48D84
:1002A000A80FB92FB11DA35ABF4F2C91848D90E098
:1002B00001968F739927848FA689B7892C93A0897B
:1002C000B1898C91837080648C93938D848D981305
:1002D00006C00288F389E02D80818F7D8083089598
:1002E000EF92FF920F931F93CF93DF93EC0181E086
:1002F000888F9B8D8C8D98131AC0E889F98980812D
:1003000085FF15C09FB7F894EE89FF896083E8895F
:10031000F98980818370806480839FBF81E090E051
:10032000DF91CF911F910F91FF90EF900895F62EDE
:100330000B8D10E00F5F1F4F0F731127E02E8C8D78
:100340008E110CC00FB607FCFACFE889F9898081BD
:1003500085FFF5CFCE010E944E01F1CFEB8DEC0F62
:10036000FD2FF11DE35AFF4FF0829FB7F8940B8FDA
:10037000EA89FB8980818062CFCFCF93DF93EC0144
:10038000888D8823B9F0AA89BB89E889F9898C917D
:1003900085FD03C0808186FD0DC00FB607FCF7CF39
:1003A0008C9185FFF2CF808185FFEDCFCE010E9439
:1003B0004E01E9CFDF91CF9108950F931F93CF9313
:1003C000DF93EC0188819981009759F02A813B8164
:1003D0002617370730F081E0DF91CF911F910F9101
:1003E00008958B016F5F7F4F0E94D005009759F0F1
:1003F000998388831B830A832C813D81232B59F7A2
:10040000FC011082E8CF80E0E7CFEF92FF920F93DC
:100410001F93CF93DF93EC017B018A01BA010E9405
:10042000DD0128813981811114C02115310519F0B0
:10043000C9010E944705198218821D821C821B82F5
:100440001A82CE01DF91CF911F910F91FF90EF9013
:1004500008951D830C83B701C9010E949F06F1CF47
:100460001F920F920FB60F9211242F933F938F93E9
:100470009F93AF93BF938091430190914401A091CA
:100480004501B09146013091420123E0230F2D3701
:1004900058F50196A11DB11D20934201809343019F
:1004A00090934401A0934501B093460180913E0191
:1004B00090913F01A0914001B09141010196A11D91
:1004C000B11D80933E0190933F01A0934001B093F2
:1004D0004101BF91AF919F918F913F912F910F90CB
:1004E0000FBE0F901F90189526E8230F0296A11DAE
:1004F000B11DD2CF1F920F920FB60F9211242F93DE
:100500003F934F935F936F937F938F939F93AF939B
:10051000BF93EF93FF9387E491E00E944E01FF9118
:10052000EF91BF91AF919F918F917F916F915F916B
:100530004F913F912F910F900FBE0F901F901895E4
:100540001F920F920FB60F9211242F938F939F93A8
:10055000EF93FF93E0915701F09158018081E09172
:100560005D01F0915E0182FD1BC090818091600170
:100570008F5F8F7320916101821741F0E0916001DC
:10058000F0E0E95BFE4F958F80936001FF91EF9162
:100590009F918F912F910F900FBE0F901F901895E4
:1005A0008081F4CFE7E4F1E01382128288EE93E0D9
:1005B000A0E0B0E084839583A683B7838AE091E0CE
:1005C0009183808385EC90E09587848784EC90E02C
:1005D0009787868780EC90E0918B808B81EC90E010
:1005E000938B828B82EC90E0958B848B86EC90E0F1
:1005F000978B868B118E128E138E148EE4EEF1E0A3
:1006000011821082138212821582148250E040E01F
:100610006DE271E0CF010C940502CF93DF9300D01F
:1006200000D000D0CDB7DEB7789484B5826084BDA9
:1006300084B5816084BD85B5826085BD85B58160E6
:1006400085BD80916E00816080936E001092810064
:10065000809181008260809381008091810081601F
:1006600080938100809180008160809380008091E0
:10067000B10084608093B1008091B000816080936C
:10068000B00080917A00846080937A0080917A0033
:10069000826080937A0080917A00816080937A00F2
:1006A00080917A00806880937A001092C100E6E918
:1006B000F0E02491E2E8F0E08491882399F090E062
:1006C000880F991FFC01E859FF4FA591B491FC01D7
:1006D000EE58FF4F859194918FB7F894EC91E22BEF
:1006E000EC938FBFE0915701F091580182E0808335
:1006F000E0915301F09154011082E0915501F09185
:1007000056018FEC808310925F01E0915B01F091C4
:100710005C0186E08083E0915901F0915A0180816B
:1007200080618083E0915901F0915A018081886055
:100730008083E0915901F0915A0180818068808323
:10074000E0915901F0915A0180818F7D808380E092
:10075000E82E80E0F82E87E491E00E942E01181622
:1007600019060CF06DC087E491E00E940C018A30FC
:1007700009F088C01A8219821C821B821E821D8287
:1007800042E150E068E171E0CE0101960E9405026D
:10079000C090E401D090E501C114D10409F45CC01B
:1007A0000091E8011091E90101151105B9F08D8161
:1007B0009E81080F191FB801CE0101960E94DD012C
:1007C000882309F449C029813A818D819E81B6012F
:1007D000820F931F0E949F061E830D834D815E81B1
:1007E00069817A8187E491E00E94D00042E050E084
:1007F0006BE271E087E491E00E94D00089819A81E8
:10080000009711F00E9447058091E8019091E9015D
:10081000892B71F00091E4011091E5016EE271E025
:10082000C8010E949606892B21F581E00E9488006C
:1008300050E040E06DE271E084EE91E00E9405023C
:10084000E114F10409F487CF0E943A01882309F4E6
:1008500082CF0E9400007FCF89819A81009711F09A
:100860000E9447051A8219821E821D821C821B82E9
:10087000B5CF65E371E0C8010E949606892BC1F6E9
:1008800080E0D4CF89831A820091E8011091E901B8
:100890000F5F1F4FB80184EE91E00E94DD018823B5
:1008A00079F22091E4013091E5018091E801909185
:1008B000E901BE016F5F7F4F820F931F0E949F0669
:1008C0001093E9010093E801BBCF8091E40190917E
:1008D000E501009711F00C94470508952F923F927F
:1008E0004F925F926F927F928F929F92AF92BF9240
:1008F000CF92DF92EF92FF920F931F93CF93DF93EC
:10090000CDB7DEB7CA1BDB0B0FB6F894DEBF0FBE48
:10091000CDBF09942A88398848885F846E847D8495
:100920008C849B84AA84B984C884DF80EE80FD8097
:100930000C811B81AA81B981CE0FD11D0FB6F8940D
:10094000DEBF0FBECDBFED010895EE0FFF1F059076
:10095000F491E02D09940F931F93CF93DF9382308E
:10096000910510F482E090E0E091EC01F091ED014E
:1009700030E020E0B0E0A0E0309799F42115310597
:1009800009F44AC0281B390B24303105D8F58A8177
:100990009B816115710589F1FB0193838283FE01BF
:1009A00011C0408151810281138148175907E0F03D
:1009B0004817590799F4109761F012960C93129703
:1009C00013961C933296CF01DF91CF911F910F9117
:1009D00008950093EC011093ED01F4CF211531053A
:1009E00051F04217530738F0A901DB019A01BD010C
:1009F000DF01F801C1CFEF01F9CF9093ED018093B2
:100A0000EC01CDCFFE01E20FF31F819391932250B1
:100A1000310939832883D7CF2091EA013091EB0146
:100A2000232B41F420910201309103013093EB011B
:100A30002093EA0120910001309101012115310537
:100A400041F42DB73EB74091040150910501241B9C
:100A5000350BE091EA01F091EB01E217F307A0F406
:100A60002E1B3F0B2817390778F0AC014E5F5F4F04
:100A70002417350748F04E0F5F1F5093EB0140934A
:100A8000EA01819391939FCFF0E0E0E09CCFCF9378
:100A9000DF930097E9F0FC01329713821282A09154
:100AA000EC01B091ED01ED0130E020E01097A1F4F0
:100AB00020813181820F931F2091EA013091EB0157
:100AC0002817390709F061C0F093EB01E093EA01C0
:100AD000DF91CF910895EA01CE17DF07E8F54A814B
:100AE0005B819E0141155105B1F7E901FB83EA8362
:100AF00049915991C40FD51FEC17FD0761F480810E
:100B000091810296840F951FE901998388838281E0
:100B100093819B838A83F0E0E0E012968D919C9113
:100B200013970097B9F52D913C911197CD0102963D
:100B3000820F931F2091EA013091EB0128173907AA
:100B400039F6309751F51092ED011092EC01B09307
:100B5000EB01A093EA01BCCFD383C28340815181D2
:100B6000840F951FC817D90761F44E5F5F4F8881C6
:100B70009981480F591F518340838A819B819383B8
:100B800082832115310509F0B0CFF093ED01E09398
:100B9000EC019ECFFD01DC01C0CF13821282D7CFC2
:100BA000B0E0A0E0E6EDF5E00C9470048C01009755
:100BB00051F4CB010E94AB048C01C801CDB7DEB764
:100BC000E0E10C948C04FC01E60FF71F9C0122501D
:100BD0003109E217F30708F49DC0D901CD91DC91EA
:100BE0001197C617D70798F0C530D10530F3CE015D
:100BF00004978617970708F3C61BD70B2297C19354
:100C0000D1936D937C93CF010E944705D6CF5B01B2
:100C1000AC1ABD0A4C018C0E9D1EA091EC01B09146
:100C2000ED01512C412CF12CE12C109731F58091E4
:100C3000EA019091EB018815990509F05CC0461610
:100C4000570608F058C0809100019091010100976B
:100C500041F48DB79EB74091040150910501841B6A
:100C6000950BE817F90708F055C0F093EB01E093F6
:100C7000EA01F90171836083A0CF8D919C91119756
:100C800012966C90129713967C901397A815B9053D
:100C900059F56C0142E0C40ED11CCA14DB0420F1EA
:100CA000AC014A195B09DA011296159780F062824D
:100CB000738251834083D9016D937C93E114F104D5
:100CC00071F0D7011396FC93EE93129776CF22968C
:100CD0008C0F9D1FF90191838083F301EFCFF09377
:100CE000ED01E093EC0169CF4816590608F42C0198
:100CF0007D01D3019ACFCB010E94AB047C01009708
:100D000049F0AE01B8010E948D06C8010E94470556
:100D1000870153CF10E000E050CFFB01DC0102C09F
:100D200001900D9241505040D8F70895FB01DC012D
:100D30008D91019080190110D9F3990B0895FB0151
:100D4000DC0101900D920020E1F7089510E0CDE55F
:100D5000D0E004C0FE010E94A5042196CE35D10743
:060D6000C9F7F894FFCF73
:100D66000000EE018000000000007001D000FD00D0
:100D7600BD012E010C01200141726475696E6F2060
:100D860052656365697665643A20000D0A004C4534
:0E0D960044206F6E004C4544206F66660000DE
:00000001FF
